{
  "_format": "hh-sol-artifact-1",
  "contractName": "GuardedLiquityV2OracleAdaptor",
  "sourceName": "contracts/GuardedLiquityV2OracleAdaptor.sol",
  "abi": [
    {
      "inputs": [
        {
          "internalType": "address",
          "name": "_tellorDataBank",
          "type": "address"
        },
        {
          "internalType": "bytes32",
          "name": "_queryId",
          "type": "bytes32"
        },
        {
          "internalType": "uint8",
          "name": "_decimals",
          "type": "uint8"
        },
        {
          "internalType": "string",
          "name": "_project",
          "type": "string"
        },
        {
          "internalType": "string",
          "name": "_name",
          "type": "string"
        },
        {
          "internalType": "address",
          "name": "_admin",
          "type": "address"
        }
      ],
      "stateMutability": "nonpayable",
      "type": "constructor"
    },
    {
      "anonymous": false,
      "inputs": [],
      "name": "AdminRemoved",
      "type": "event"
    },
    {
      "anonymous": false,
      "inputs": [
        {
          "indexed": true,
          "internalType": "address",
          "name": "guardian",
          "type": "address"
        }
      ],
      "name": "GuardianAdded",
      "type": "event"
    },
    {
      "anonymous": false,
      "inputs": [
        {
          "indexed": true,
          "internalType": "address",
          "name": "guardian",
          "type": "address"
        }
      ],
      "name": "GuardianRemoved",
      "type": "event"
    },
    {
      "anonymous": false,
      "inputs": [],
      "name": "Paused",
      "type": "event"
    },
    {
      "anonymous": false,
      "inputs": [],
      "name": "Unpaused",
      "type": "event"
    },
    {
      "inputs": [],
      "name": "MS_PER_SECOND",
      "outputs": [
        {
          "internalType": "uint256",
          "name": "",
          "type": "uint256"
        }
      ],
      "stateMutability": "view",
      "type": "function"
    },
    {
      "inputs": [
        {
          "internalType": "address",
          "name": "_newGuardian",
          "type": "address"
        }
      ],
      "name": "addGuardian",
      "outputs": [],
      "stateMutability": "nonpayable",
      "type": "function"
    },
    {
      "inputs": [],
      "name": "admin",
      "outputs": [
        {
          "internalType": "address",
          "name": "",
          "type": "address"
        }
      ],
      "stateMutability": "view",
      "type": "function"
    },
    {
      "inputs": [],
      "name": "dataBank",
      "outputs": [
        {
          "internalType": "contract ITellorDataBank",
          "name": "",
          "type": "address"
        }
      ],
      "stateMutability": "view",
      "type": "function"
    },
    {
      "inputs": [],
      "name": "decimals",
      "outputs": [
        {
          "internalType": "uint8",
          "name": "",
          "type": "uint8"
        }
      ],
      "stateMutability": "view",
      "type": "function"
    },
    {
      "inputs": [],
      "name": "guardianCount",
      "outputs": [
        {
          "internalType": "uint256",
          "name": "",
          "type": "uint256"
        }
      ],
      "stateMutability": "view",
      "type": "function"
    },
    {
      "inputs": [
        {
          "internalType": "address",
          "name": "",
          "type": "address"
        }
      ],
      "name": "guardians",
      "outputs": [
        {
          "internalType": "bool",
          "name": "",
          "type": "bool"
        }
      ],
      "stateMutability": "view",
      "type": "function"
    },
    {
      "inputs": [],
      "name": "latestRoundData",
      "outputs": [
        {
          "internalType": "uint80",
          "name": "roundId",
          "type": "uint80"
        },
        {
          "internalType": "int256",
          "name": "answer",
          "type": "int256"
        },
        {
          "internalType": "uint256",
          "name": "startedAt",
          "type": "uint256"
        },
        {
          "internalType": "uint256",
          "name": "updatedAt",
          "type": "uint256"
        },
        {
          "internalType": "uint80",
          "name": "answeredInRound",
          "type": "uint80"
        }
      ],
      "stateMutability": "view",
      "type": "function"
    },
    {
      "inputs": [],
      "name": "name",
      "outputs": [
        {
          "internalType": "string",
          "name": "",
          "type": "string"
        }
      ],
      "stateMutability": "view",
      "type": "function"
    },
    {
      "inputs": [],
      "name": "pause",
      "outputs": [],
      "stateMutability": "nonpayable",
      "type": "function"
    },
    {
      "inputs": [],
      "name": "paused",
      "outputs": [
        {
          "internalType": "bool",
          "name": "",
          "type": "bool"
        }
      ],
      "stateMutability": "view",
      "type": "function"
    },
    {
      "inputs": [],
      "name": "project",
      "outputs": [
        {
          "internalType": "string",
          "name": "",
          "type": "string"
        }
      ],
      "stateMutability": "view",
      "type": "function"
    },
    {
      "inputs": [],
      "name": "queryId",
      "outputs": [
        {
          "internalType": "bytes32",
          "name": "",
          "type": "bytes32"
        }
      ],
      "stateMutability": "view",
      "type": "function"
    },
    {
      "inputs": [
        {
          "internalType": "address",
          "name": "_guardian",
          "type": "address"
        }
      ],
      "name": "removeGuardian",
      "outputs": [],
      "stateMutability": "nonpayable",
      "type": "function"
    },
    {
      "inputs": [],
      "name": "unpause",
      "outputs": [],
      "stateMutability": "nonpayable",
      "type": "function"
    }
  ],
  "bytecode": "0x60e06040523480156200001157600080fd5b50604051620011a8380380620011a88339810160408190526200003491620001a9565b6001600160a01b0381166000908152602081905260408120805460ff191660011790556002805483929091906200006b836200025b565b9091555050600380546001600160a01b0319166001600160a01b03928316179055861660805260a085905260ff841660c0526005620000ab848262000312565b506004620000ba838262000312565b50505050505050620003de565b80516001600160a01b0381168114620000df57600080fd5b919050565b634e487b7160e01b600052604160045260246000fd5b600082601f8301126200010c57600080fd5b81516001600160401b0380821115620001295762000129620000e4565b604051601f8301601f19908116603f01168101908282118183101715620001545762000154620000e4565b816040528381526020925086838588010111156200017157600080fd5b600091505b8382101562000195578582018301518183018401529082019062000176565b600093810190920192909252949350505050565b60008060008060008060c08789031215620001c357600080fd5b620001ce87620000c7565b955060208701519450604087015160ff81168114620001ec57600080fd5b60608801519094506001600160401b03808211156200020a57600080fd5b620002188a838b01620000fa565b945060808901519150808211156200022f57600080fd5b506200023e89828a01620000fa565b9250506200024f60a08801620000c7565b90509295509295509295565b6000600182016200027c57634e487b7160e01b600052601160045260246000fd5b5060010190565b600181811c908216806200029857607f821691505b602082108103620002b957634e487b7160e01b600052602260045260246000fd5b50919050565b601f8211156200030d57600081815260208120601f850160051c81016020861015620002e85750805b601f850160051c820191505b818110156200030957828155600101620002f4565b5050505b505050565b81516001600160401b038111156200032e576200032e620000e4565b62000346816200033f845462000283565b84620002bf565b602080601f8311600181146200037e5760008415620003655750858301515b600019600386901b1c1916600185901b17855562000309565b600085815260208120601f198616915b82811015620003af578886015182559484019460019091019084016200038e565b5085821015620003ce5787850151600019600388901b60f8161c191681555b5050505050600190811b01905550565b60805160a05160c051610d8c6200041c600039600061016301526000818161019c015261089a0152600081816101fe01526108c30152610d8c6000f3fe608060405234801561001057600080fd5b50600436106100f55760003560e01c80635c975abb11610097578063a526d83b11610066578063a526d83b14610238578063f60ca60d1461024b578063f851a44014610253578063feaf968c1461026657600080fd5b80635c975abb146101d157806371404156146101de5780638456cb59146101f1578063985c4ab2146101f957600080fd5b8063313ce567116100d3578063313ce5671461015e5780633f1be4d4146101975780633f4ba83a146101be57806354387ad7146101c857600080fd5b80630633b14a146100fa57806306fdde03146101325780631a8bcd3414610147575b600080fd5b61011d610108366004610abc565b60006020819052908152604090205460ff1681565b60405190151581526020015b60405180910390f35b61013a6102a5565b6040516101299190610b10565b6101506103e881565b604051908152602001610129565b6101857f000000000000000000000000000000000000000000000000000000000000000081565b60405160ff9091168152602001610129565b6101507f000000000000000000000000000000000000000000000000000000000000000081565b6101c6610333565b005b61015060025481565b60015461011d9060ff1681565b6101c66101ec366004610abc565b610428565b6101c6610644565b6102207f000000000000000000000000000000000000000000000000000000000000000081565b6040516001600160a01b039091168152602001610129565b6101c6610246366004610abc565b61072d565b61013a61086e565b600354610220906001600160a01b031681565b61026e61087b565b6040805169ffffffffffffffffffff968716815260208101959095528401929092526060830152909116608082015260a001610129565b600480546102b290610b43565b80601f01602080910402602001604051908101604052809291908181526020018280546102de90610b43565b801561032b5780601f106103005761010080835404028352916020019161032b565b820191906000526020600020905b81548152906001019060200180831161030e57829003601f168201915b505050505081565b3360009081526020819052604090205460ff166103975760405162461bcd60e51b815260206004820152601f60248201527f477561726465645061757361626c653a204e6f74206120677561726469616e0060448201526064015b60405180910390fd5b60015460ff166103f35760405162461bcd60e51b815260206004820152602160248201527f477561726465645061757361626c653a20416c726561647920756e70617573656044820152601960fa1b606482015260840161038e565b6001805460ff191690556040517fa45f47fdea8a1efdd9029a5691c7f759c32b7c698632b563573e155625d1693390600090a1565b6003546001600160a01b031633146104825760405162461bcd60e51b815260206004820152601d60248201527f477561726465645061757361626c653a204e6f7420616e2061646d696e000000604482015260640161038e565b6001600160a01b03811660009081526020819052604090205460ff166104fb5760405162461bcd60e51b815260206004820152602860248201527f477561726465645061757361626c653a20477561726469616e20646f6573206e6044820152671bdd08195e1a5cdd60c21b606482015260840161038e565b6003546001600160a01b03908116908216036105da576002546001146105935760405162461bcd60e51b815260206004820152604160248201527f477561726465645061757361626c653a2043616e6e6f742072656d6f7665206160448201527f646d696e20696620746865726520617265206f7468657220677561726469616e6064820152607360f81b608482015260a40161038e565b6003805473ffffffffffffffffffffffffffffffffffffffff191690556040517f4cfab879d9e723c00dcc2fbf5d5ac2a8ef2aa1a64083e85c8195e99633d67d2590600090a15b6001600160a01b0381166000908152602081905260408120805460ff19169055600280549161060883610b93565b90915550506040516001600160a01b038216907fb8107d0c6b40be480ce3172ee66ba6d64b71f6b1685a851340036e6e2e3e3c5290600090a250565b3360009081526020819052604090205460ff166106a35760405162461bcd60e51b815260206004820152601f60248201527f477561726465645061757361626c653a204e6f74206120677561726469616e00604482015260640161038e565b60015460ff16156106f65760405162461bcd60e51b815260206004820152601f60248201527f477561726465645061757361626c653a20416c72656164792070617573656400604482015260640161038e565b6001805460ff1916811790556040517f9e87fac88ff661f02d44f95383c817fece4bce600a3dab7a54406878b965e75290600090a1565b6003546001600160a01b031633146107875760405162461bcd60e51b815260206004820152601d60248201527f477561726465645061757361626c653a204e6f7420616e2061646d696e000000604482015260640161038e565b6001600160a01b03811660009081526020819052604090205460ff16156108015760405162461bcd60e51b815260206004820152602860248201527f477561726465645061757361626c653a20477561726469616e20616c72656164604482015267792065786973747360c01b606482015260840161038e565b6001600160a01b0381166000908152602081905260408120805460ff19166001179055600280549161083283610baa565b90915550506040516001600160a01b038216907f038596bb31e2e7d3d9f184d4c98b310103f6d7f5830e5eec32bffe6f1728f96990600090a250565b600580546102b290610b43565b600080600080600061088b610a5d565b60405163cb95671160e01b81527f000000000000000000000000000000000000000000000000000000000000000060048201526000907f00000000000000000000000000000000000000000000000000000000000000006001600160a01b03169063cb95671190602401600060405180830381865afa158015610912573d6000803e3d6000fd5b505050506040513d6000823e601f3d908101601f1916820160405261093a9190810190610c33565b905060008160400151116109a95760405162461bcd60e51b815260206004820152603060248201527f477561726465644c69717569747956324f7261636c6541646170746f723a204e60448201526f6f206461746120617661696c61626c6560801b606482015260840161038e565b600081600001518060200190518101906109c39190610d1b565b90506001600160ff1b038110610a325760405162461bcd60e51b815260206004820152602e60248201527f477561726465644c69717569747956324f7261636c6541646170746f723a205060448201526d7269636520746f6f206c6172676560901b606482015260840161038e565b60018160006103e88560400151610a499190610d34565b929a91995097509095506000945092505050565b60015460ff1615610aba5760405162461bcd60e51b815260206004820152602160248201527f477561726465645061757361626c653a2054656c6c6f722069732070617573656044820152601960fa1b606482015260840161038e565b565b600060208284031215610ace57600080fd5b81356001600160a01b0381168114610ae557600080fd5b9392505050565b60005b83811015610b07578181015183820152602001610aef565b50506000910152565b6020815260008251806020840152610b2f816040850160208701610aec565b601f01601f19169190910160400192915050565b600181811c90821680610b5757607f821691505b602082108103610b7757634e487b7160e01b600052602260045260246000fd5b50919050565b634e487b7160e01b600052601160045260246000fd5b600081610ba257610ba2610b7d565b506000190190565b600060018201610bbc57610bbc610b7d565b5060010190565b634e487b7160e01b600052604160045260246000fd5b60405160a0810167ffffffffffffffff81118282101715610bfc57610bfc610bc3565b60405290565b604051601f8201601f1916810167ffffffffffffffff81118282101715610c2b57610c2b610bc3565b604052919050565b60006020808385031215610c4657600080fd5b825167ffffffffffffffff80821115610c5e57600080fd5b9084019060a08287031215610c7257600080fd5b610c7a610bd9565b825182811115610c8957600080fd5b8301601f81018813610c9a57600080fd5b805183811115610cac57610cac610bc3565b610cbe601f8201601f19168701610c02565b93508084528886828401011115610cd457600080fd5b610ce381878601888501610aec565b505081815283830151848201526040830151604082015260608301516060820152608083015160808201528094505050505092915050565b600060208284031215610d2d57600080fd5b5051919050565b600082610d5157634e487b7160e01b600052601260045260246000fd5b50049056fea2646970667358221220117f3157a12c7631ec199ea7a001742ae95c8ee3d8addbe3256129648f1dcb8664736f6c63430008130033",
  "linkReferences": {},
  "deployedLinkReferences": {}
}