{
  "_format": "hh-sol-artifact-1",
  "contractName": "TellorDataBridge",
  "sourceName": "contracts/bridge/TellorDataBridge.sol",
  "abi": [
    {
      "inputs": [
        {
          "internalType": "address",
          "name": "_guardian",
          "type": "address"
        }
      ],
      "stateMutability": "nonpayable",
      "type": "constructor"
    },
    {
      "inputs": [],
      "name": "AlreadyInitialized",
      "type": "error"
    },
    {
      "inputs": [],
      "name": "ECDSAInvalidSignature",
      "type": "error"
    },
    {
      "inputs": [
        {
          "internalType": "uint256",
          "name": "length",
          "type": "uint256"
        }
      ],
      "name": "ECDSAInvalidSignatureLength",
      "type": "error"
    },
    {
      "inputs": [
        {
          "internalType": "bytes32",
          "name": "s",
          "type": "bytes32"
        }
      ],
      "name": "ECDSAInvalidSignatureS",
      "type": "error"
    },
    {
      "inputs": [],
      "name": "InsufficientVotingPower",
      "type": "error"
    },
    {
      "inputs": [],
      "name": "InvalidPowerThreshold",
      "type": "error"
    },
    {
      "inputs": [],
      "name": "InvalidSignature",
      "type": "error"
    },
    {
      "inputs": [],
      "name": "MalformedCurrentValidatorSet",
      "type": "error"
    },
    {
      "inputs": [],
      "name": "NotDeployer",
      "type": "error"
    },
    {
      "inputs": [],
      "name": "NotGuardian",
      "type": "error"
    },
    {
      "inputs": [],
      "name": "StaleValidatorSet",
      "type": "error"
    },
    {
      "inputs": [],
      "name": "SuppliedValidatorSetInvalid",
      "type": "error"
    },
    {
      "inputs": [],
      "name": "ValidatorSetNotStale",
      "type": "error"
    },
    {
      "inputs": [],
      "name": "ValidatorTimestampMustIncrease",
      "type": "error"
    },
    {
      "anonymous": false,
      "inputs": [
        {
          "indexed": false,
          "internalType": "uint256",
          "name": "_powerThreshold",
          "type": "uint256"
        },
        {
          "indexed": false,
          "internalType": "uint256",
          "name": "_validatorTimestamp",
          "type": "uint256"
        },
        {
          "indexed": false,
          "internalType": "bytes32",
          "name": "_validatorSetHash",
          "type": "bytes32"
        }
      ],
      "name": "GuardianResetValidatorSet",
      "type": "event"
    },
    {
      "anonymous": false,
      "inputs": [
        {
          "indexed": false,
          "internalType": "uint256",
          "name": "_powerThreshold",
          "type": "uint256"
        },
        {
          "indexed": false,
          "internalType": "uint256",
          "name": "_validatorTimestamp",
          "type": "uint256"
        },
        {
          "indexed": false,
          "internalType": "bytes32",
          "name": "_validatorSetHash",
          "type": "bytes32"
        }
      ],
      "name": "ValidatorSetUpdated",
      "type": "event"
    },
    {
      "inputs": [],
      "name": "MS_PER_SECOND",
      "outputs": [
        {
          "internalType": "uint256",
          "name": "",
          "type": "uint256"
        }
      ],
      "stateMutability": "view",
      "type": "function"
    },
    {
      "inputs": [],
      "name": "deployer",
      "outputs": [
        {
          "internalType": "address",
          "name": "",
          "type": "address"
        }
      ],
      "stateMutability": "view",
      "type": "function"
    },
    {
      "inputs": [],
      "name": "guardian",
      "outputs": [
        {
          "internalType": "address",
          "name": "",
          "type": "address"
        }
      ],
      "stateMutability": "view",
      "type": "function"
    },
    {
      "inputs": [
        {
          "internalType": "uint256",
          "name": "_powerThreshold",
          "type": "uint256"
        },
        {
          "internalType": "uint256",
          "name": "_validatorTimestamp",
          "type": "uint256"
        },
        {
          "internalType": "bytes32",
          "name": "_validatorSetCheckpoint",
          "type": "bytes32"
        }
      ],
      "name": "guardianResetValidatorSet",
      "outputs": [],
      "stateMutability": "nonpayable",
      "type": "function"
    },
    {
      "inputs": [
        {
          "internalType": "uint256",
          "name": "_powerThreshold",
          "type": "uint256"
        },
        {
          "internalType": "uint256",
          "name": "_validatorTimestamp",
          "type": "uint256"
        },
        {
          "internalType": "uint256",
          "name": "_unbondingPeriod",
          "type": "uint256"
        },
        {
          "internalType": "bytes32",
          "name": "_validatorSetCheckpoint",
          "type": "bytes32"
        }
      ],
      "name": "init",
      "outputs": [],
      "stateMutability": "nonpayable",
      "type": "function"
    },
    {
      "inputs": [],
      "name": "initialized",
      "outputs": [
        {
          "internalType": "bool",
          "name": "",
          "type": "bool"
        }
      ],
      "stateMutability": "view",
      "type": "function"
    },
    {
      "inputs": [],
      "name": "lastValidatorSetCheckpoint",
      "outputs": [
        {
          "internalType": "bytes32",
          "name": "",
          "type": "bytes32"
        }
      ],
      "stateMutability": "view",
      "type": "function"
    },
    {
      "inputs": [],
      "name": "powerThreshold",
      "outputs": [
        {
          "internalType": "uint256",
          "name": "",
          "type": "uint256"
        }
      ],
      "stateMutability": "view",
      "type": "function"
    },
    {
      "inputs": [],
      "name": "unbondingPeriod",
      "outputs": [
        {
          "internalType": "uint256",
          "name": "",
          "type": "uint256"
        }
      ],
      "stateMutability": "view",
      "type": "function"
    },
    {
      "inputs": [
        {
          "internalType": "bytes32",
          "name": "_newValidatorSetHash",
          "type": "bytes32"
        },
        {
          "internalType": "uint64",
          "name": "_newPowerThreshold",
          "type": "uint64"
        },
        {
          "internalType": "uint256",
          "name": "_newValidatorTimestamp",
          "type": "uint256"
        },
        {
          "components": [
            {
              "internalType": "address",
              "name": "addr",
              "type": "address"
            },
            {
              "internalType": "uint256",
              "name": "power",
              "type": "uint256"
            }
          ],
          "internalType": "struct Validator[]",
          "name": "_currentValidatorSet",
          "type": "tuple[]"
        },
        {
          "components": [
            {
              "internalType": "uint8",
              "name": "v",
              "type": "uint8"
            },
            {
              "internalType": "bytes32",
              "name": "r",
              "type": "bytes32"
            },
            {
              "internalType": "bytes32",
              "name": "s",
              "type": "bytes32"
            }
          ],
          "internalType": "struct Signature[]",
          "name": "_sigs",
          "type": "tuple[]"
        }
      ],
      "name": "updateValidatorSet",
      "outputs": [],
      "stateMutability": "nonpayable",
      "type": "function"
    },
    {
      "inputs": [],
      "name": "validatorTimestamp",
      "outputs": [
        {
          "internalType": "uint256",
          "name": "",
          "type": "uint256"
        }
      ],
      "stateMutability": "view",
      "type": "function"
    },
    {
      "inputs": [
        {
          "components": [
            {
              "internalType": "bytes32",
              "name": "queryId",
              "type": "bytes32"
            },
            {
              "components": [
                {
                  "internalType": "bytes",
                  "name": "value",
                  "type": "bytes"
                },
                {
                  "internalType": "uint256",
                  "name": "timestamp",
                  "type": "uint256"
                },
                {
                  "internalType": "uint256",
                  "name": "aggregatePower",
                  "type": "uint256"
                },
                {
                  "internalType": "uint256",
                  "name": "previousTimestamp",
                  "type": "uint256"
                },
                {
                  "internalType": "uint256",
                  "name": "nextTimestamp",
                  "type": "uint256"
                },
                {
                  "internalType": "uint256",
                  "name": "lastConsensusTimestamp",
                  "type": "uint256"
                }
              ],
              "internalType": "struct ReportData",
              "name": "report",
              "type": "tuple"
            },
            {
              "internalType": "uint256",
              "name": "attestationTimestamp",
              "type": "uint256"
            }
          ],
          "internalType": "struct OracleAttestationData",
          "name": "_attestData",
          "type": "tuple"
        },
        {
          "components": [
            {
              "internalType": "address",
              "name": "addr",
              "type": "address"
            },
            {
              "internalType": "uint256",
              "name": "power",
              "type": "uint256"
            }
          ],
          "internalType": "struct Validator[]",
          "name": "_currentValidatorSet",
          "type": "tuple[]"
        },
        {
          "components": [
            {
              "internalType": "uint8",
              "name": "v",
              "type": "uint8"
            },
            {
              "internalType": "bytes32",
              "name": "r",
              "type": "bytes32"
            },
            {
              "internalType": "bytes32",
              "name": "s",
              "type": "bytes32"
            }
          ],
          "internalType": "struct Signature[]",
          "name": "_sigs",
          "type": "tuple[]"
        }
      ],
      "name": "verifyOracleData",
      "outputs": [],
      "stateMutability": "view",
      "type": "function"
    }
  ],
  "bytecode": "0x608060405234801561001057600080fd5b50604051610efd380380610efd83398101604081905261002f9161005d565b600080546001600160a01b039092166001600160a01b0319928316179055600580549091163317905561008d565b60006020828403121561006f57600080fd5b81516001600160a01b038116811461008657600080fd5b9392505050565b610e618061009c6000396000f3fe608060405234801561001057600080fd5b50600436106100d45760003560e01c80635e0d3b0f11610081578063af082a7d1161005b578063af082a7d146101a4578063ba95ec27146101ad578063d5f39488146101b657600080fd5b80635e0d3b0f146101755780636cf6d6751461018857806384330d4c1461019157600080fd5b80634394f6f3116100b25780634394f6f31461012e578063452a9320146101415780634f76f1ee1461016c57600080fd5b8063158ef93e146100d9578063185bf52b146101025780631a8bcd3414610117575b600080fd5b6005546100ed90600160a01b900460ff1681565b60405190151581526020015b60405180910390f35b610115610110366004610981565b6101c9565b005b6101206103e881565b6040519081526020016100f9565b61011561013c3660046109ad565b6102a7565b600054610154906001600160a01b031681565b6040516001600160a01b0390911681526020016100f9565b61012060045481565b610115610183366004610a70565b610323565b61012060035481565b61011561019f366004610b0d565b610484565b61012060015481565b61012060025481565b600554610154906001600160a01b031681565b6000546001600160a01b031633146101f4576040516377b6878160e11b815260040160405180910390fd5b6003546103e86004546102079190610bc0565b6102119042610be2565b101561023057604051630e1b676960e11b815260040160405180910390fd5b600454821161025257604051630780635d60e41b815260040160405180910390fd5b60028390556004829055600181905560408051848152602081018490529081018290527fd7067f3840022e90166b8566f9982288b89ec7479b8eb30fad06290f18c8cb099060600160405180910390a1505050565b6005546001600160a01b031633146102d257604051638b906c9760e01b815260040160405180910390fd5b600554600160a01b900460ff16156102fc5760405162dc149f60e41b815260040160405180910390fd5b6005805460ff60a01b1916600160a01b179055600293909355600491909155600355600155565b8281146103435760405163c6617b7b60e01b815260040160405180910390fd5b60015461037d6002546004548787604051602001610362929190610c17565b604051602081830303815290604052805190602001206105dd565b1461039b57604051630bbdaec960e11b815260040160405180910390fd5b60007f74656c6c6f7243757272656e744174746573746174696f6e000000000000000086356103cd6020890189610c6e565b6103d79080610c8e565b6103e460208b018b610c6e565b602001358a80602001906103f89190610c6e565b6040013561040960208d018d610c6e565b6060013561041a60208e018e610c6e565b608001356001548e604001358f80602001906104369190610c6e565b60a001356040516020016104549b9a99989796959493929190610cd5565b60405160208183030381529060405280519060200120905061047c858585858560025461062d565b505050505050565b8281146104a45760405163c6617b7b60e01b815260040160405180910390fd5b6004548510156104c757604051630780635d60e41b815260040160405180910390fd5b8567ffffffffffffffff166000036104f257604051631876e19160e31b815260040160405180910390fd5b60008484604051602001610507929190610c17565b604051602081830303815290604052805190602001209050600154610531600254600454846105dd565b1461054f57604051630bbdaec960e11b815260040160405180910390fd5b60006105668867ffffffffffffffff16888b6105dd565b9050610578868686868560025461062d565b600181905567ffffffffffffffff881660028190556004889055604080519182526020820189905281018a90527fe304b71f81a1aaf6d714401de28ba1ebdbb5ff9c5fee59ef2a6eb984f9e8da7e9060600160405180910390a1505050505050505050565b604080516918da1958dadc1bda5b9d60b21b6020820152908101849052606081018390526080810182905260009060a0016040516020818303038152906040528051906020012090509392505050565b6003546103e86004546106409190610bc0565b61064a9042610be2565b111561066957604051633979791960e21b815260040160405180910390fd5b6000805b868110156107a15785858281811061068757610687610d46565b905060600201602001356000801b1480156106bf57508585828181106106af576106af610d46565b905060600201604001356000801b145b80156106f357508585828181106106d8576106d8610d46565b6106ee9260206060909202019081019150610d5c565b60ff16155b61078f5761074088888381811061070c5761070c610d46565b6107229260206040909202019081019150610d86565b8588888581811061073557610735610d46565b9050606002016107cc565b61075d57604051638baa579f60e01b815260040160405180910390fd5b87878281811061076f5761076f610d46565b90506040020160200135826107849190610da1565b9150828210156107a1575b8061079981610db4565b91505061066d565b50818110156107c35760405163cabeb65560e01b815260040160405180910390fd5b50505050505050565b60006002836040516020016107e391815260200190565b60408051601f19818403018152908290526107fd91610dcd565b602060405180830381855afa15801561081a573d6000803e3d6000fd5b5050506040513d601f19601f8201168201806040525081019061083d9190610dfc565b9250600080610862856108536020870187610d5c565b866020013587604001356108b2565b509092509050600081600381111561087c5761087c610e15565b1461089a57604051638baa579f60e01b815260040160405180910390fd5b506001600160a01b0385811691161490509392505050565b600080807f7fffffffffffffffffffffffffffffff5d576e7357a4501ddfe92f46681b20a08411156108ed5750600091506003905082610977565b604080516000808252602082018084528a905260ff891692820192909252606081018790526080810186905260019060a0016020604051602081039080840390855afa158015610941573d6000803e3d6000fd5b5050604051601f1901519150506001600160a01b03811661096d57506000925060019150829050610977565b9250600091508190505b9450945094915050565b60008060006060848603121561099657600080fd5b505081359360208301359350604090920135919050565b600080600080608085870312156109c357600080fd5b5050823594602084013594506040840135936060013592509050565b60008083601f8401126109f157600080fd5b50813567ffffffffffffffff811115610a0957600080fd5b6020830191508360208260061b8501011115610a2457600080fd5b9250929050565b60008083601f840112610a3d57600080fd5b50813567ffffffffffffffff811115610a5557600080fd5b602083019150836020606083028501011115610a2457600080fd5b600080600080600060608688031215610a8857600080fd5b853567ffffffffffffffff80821115610aa057600080fd5b908701906060828a031215610ab457600080fd5b90955060208701359080821115610aca57600080fd5b610ad689838a016109df565b90965094506040880135915080821115610aef57600080fd5b50610afc88828901610a2b565b969995985093965092949392505050565b600080600080600080600060a0888a031215610b2857600080fd5b87359650602088013567ffffffffffffffff8082168214610b4857600080fd5b9096506040890135955060608901359080821115610b6557600080fd5b610b718b838c016109df565b909650945060808a0135915080821115610b8a57600080fd5b50610b978a828b01610a2b565b989b979a50959850939692959293505050565b634e487b7160e01b600052601160045260246000fd5b600082610bdd57634e487b7160e01b600052601260045260246000fd5b500490565b81810381811115610bf557610bf5610baa565b92915050565b80356001600160a01b0381168114610c1257600080fd5b919050565b6020808252818101839052600090604080840186845b87811015610c61576001600160a01b03610c4683610bfb565b16835281850135858401529183019190830190600101610c2d565b5090979650505050505050565b6000823560be19833603018112610c8457600080fd5b9190910192915050565b6000808335601e19843603018112610ca557600080fd5b83018035915067ffffffffffffffff821115610cc057600080fd5b602001915036819003821315610a2457600080fd5b60006101408d83528c60208401528060408401528a81840152506101608a8c828501376000838c01820152606083019990995250608081019690965260a086019490945260c085019290925260e0840152610100830152610120820152601f909201601f1916909101019392505050565b634e487b7160e01b600052603260045260246000fd5b600060208284031215610d6e57600080fd5b813560ff81168114610d7f57600080fd5b9392505050565b600060208284031215610d9857600080fd5b610d7f82610bfb565b80820180821115610bf557610bf5610baa565b600060018201610dc657610dc6610baa565b5060010190565b6000825160005b81811015610dee5760208186018101518583015201610dd4565b506000920191825250919050565b600060208284031215610e0e57600080fd5b5051919050565b634e487b7160e01b600052602160045260246000fdfea264697066735822122051c2aac25e8aa0542d4341e8920f59970111e508d1223fc6ead6c705dfe2f2e564736f6c63430008130033",
  "linkReferences": {},
  "deployedLinkReferences": {}
}