{
  "_format": "hh-sol-artifact-1",
  "contractName": "TokenBridge",
  "sourceName": "contracts/token-bridge/TokenBridge.sol",
  "abi": [
    {
      "inputs": [
        {
          "internalType": "address",
          "name": "_token",
          "type": "address"
        },
        {
          "internalType": "address",
          "name": "_dataBridge",
          "type": "address"
        },
        {
          "internalType": "address",
          "name": "_tellorFlex",
          "type": "address"
        }
      ],
      "stateMutability": "nonpayable",
      "type": "constructor"
    },
    {
      "anonymous": false,
      "inputs": [
        {
          "indexed": false,
          "internalType": "enum TokenBridge.BridgeState",
          "name": "_newState",
          "type": "uint8"
        }
      ],
      "name": "BridgeStateUpdated",
      "type": "event"
    },
    {
      "anonymous": false,
      "inputs": [
        {
          "indexed": false,
          "internalType": "uint256",
          "name": "_depositId",
          "type": "uint256"
        },
        {
          "indexed": false,
          "internalType": "address",
          "name": "_sender",
          "type": "address"
        },
        {
          "indexed": false,
          "internalType": "string",
          "name": "_recipient",
          "type": "string"
        },
        {
          "indexed": false,
          "internalType": "uint256",
          "name": "_amount",
          "type": "uint256"
        },
        {
          "indexed": false,
          "internalType": "uint256",
          "name": "_tip",
          "type": "uint256"
        }
      ],
      "name": "Deposit",
      "type": "event"
    },
    {
      "anonymous": false,
      "inputs": [
        {
          "indexed": false,
          "internalType": "address",
          "name": "_recipient",
          "type": "address"
        },
        {
          "indexed": false,
          "internalType": "uint256",
          "name": "_amount",
          "type": "uint256"
        }
      ],
      "name": "ExtraWithdrawClaimed",
      "type": "event"
    },
    {
      "anonymous": false,
      "inputs": [
        {
          "indexed": false,
          "internalType": "uint256",
          "name": "_depositId",
          "type": "uint256"
        },
        {
          "indexed": false,
          "internalType": "string",
          "name": "_sender",
          "type": "string"
        },
        {
          "indexed": false,
          "internalType": "address",
          "name": "_recipient",
          "type": "address"
        },
        {
          "indexed": false,
          "internalType": "uint256",
          "name": "_amount",
          "type": "uint256"
        }
      ],
      "name": "Withdraw",
      "type": "event"
    },
    {
      "inputs": [],
      "name": "DEPOSIT_LIMIT_DENOMINATOR",
      "outputs": [
        {
          "internalType": "uint256",
          "name": "",
          "type": "uint256"
        }
      ],
      "stateMutability": "view",
      "type": "function"
    },
    {
      "inputs": [],
      "name": "MS_PER_SECOND",
      "outputs": [
        {
          "internalType": "uint256",
          "name": "",
          "type": "uint256"
        }
      ],
      "stateMutability": "view",
      "type": "function"
    },
    {
      "inputs": [],
      "name": "PAUSE_PERIOD",
      "outputs": [
        {
          "internalType": "uint256",
          "name": "",
          "type": "uint256"
        }
      ],
      "stateMutability": "view",
      "type": "function"
    },
    {
      "inputs": [],
      "name": "PAUSE_TRIBUTE_AMOUNT",
      "outputs": [
        {
          "internalType": "uint256",
          "name": "",
          "type": "uint256"
        }
      ],
      "stateMutability": "view",
      "type": "function"
    },
    {
      "inputs": [],
      "name": "TOKEN_DECIMAL_PRECISION_MULTIPLIER",
      "outputs": [
        {
          "internalType": "uint256",
          "name": "",
          "type": "uint256"
        }
      ],
      "stateMutability": "view",
      "type": "function"
    },
    {
      "inputs": [],
      "name": "TWELVE_HOUR_CONSTANT",
      "outputs": [
        {
          "internalType": "uint256",
          "name": "",
          "type": "uint256"
        }
      ],
      "stateMutability": "view",
      "type": "function"
    },
    {
      "inputs": [],
      "name": "WITHDRAW_LIMIT_DENOMINATOR",
      "outputs": [
        {
          "internalType": "uint256",
          "name": "",
          "type": "uint256"
        }
      ],
      "stateMutability": "view",
      "type": "function"
    },
    {
      "inputs": [
        {
          "internalType": "uint256",
          "name": "_amount",
          "type": "uint256"
        }
      ],
      "name": "addStakingRewards",
      "outputs": [],
      "stateMutability": "nonpayable",
      "type": "function"
    },
    {
      "inputs": [],
      "name": "bridgeState",
      "outputs": [
        {
          "internalType": "enum TokenBridge.BridgeState",
          "name": "",
          "type": "uint8"
        }
      ],
      "stateMutability": "view",
      "type": "function"
    },
    {
      "inputs": [],
      "name": "bridgeStateUpdateTime",
      "outputs": [
        {
          "internalType": "uint256",
          "name": "",
          "type": "uint256"
        }
      ],
      "stateMutability": "view",
      "type": "function"
    },
    {
      "inputs": [
        {
          "internalType": "address",
          "name": "_recipient",
          "type": "address"
        }
      ],
      "name": "claimExtraWithdraw",
      "outputs": [],
      "stateMutability": "nonpayable",
      "type": "function"
    },
    {
      "inputs": [],
      "name": "dataBridge",
      "outputs": [
        {
          "internalType": "contract ITellorDataBridge",
          "name": "",
          "type": "address"
        }
      ],
      "stateMutability": "view",
      "type": "function"
    },
    {
      "inputs": [],
      "name": "deployer",
      "outputs": [
        {
          "internalType": "address",
          "name": "",
          "type": "address"
        }
      ],
      "stateMutability": "view",
      "type": "function"
    },
    {
      "inputs": [],
      "name": "depositId",
      "outputs": [
        {
          "internalType": "uint256",
          "name": "",
          "type": "uint256"
        }
      ],
      "stateMutability": "view",
      "type": "function"
    },
    {
      "inputs": [],
      "name": "depositLimit",
      "outputs": [
        {
          "internalType": "uint256",
          "name": "",
          "type": "uint256"
        }
      ],
      "stateMutability": "view",
      "type": "function"
    },
    {
      "inputs": [],
      "name": "depositLimitRecord",
      "outputs": [
        {
          "internalType": "uint256",
          "name": "",
          "type": "uint256"
        }
      ],
      "stateMutability": "view",
      "type": "function"
    },
    {
      "inputs": [],
      "name": "depositLimitUpdateTime",
      "outputs": [
        {
          "internalType": "uint256",
          "name": "",
          "type": "uint256"
        }
      ],
      "stateMutability": "view",
      "type": "function"
    },
    {
      "inputs": [
        {
          "internalType": "uint256",
          "name": "_amount",
          "type": "uint256"
        },
        {
          "internalType": "uint256",
          "name": "_tip",
          "type": "uint256"
        },
        {
          "internalType": "string",
          "name": "_layerRecipient",
          "type": "string"
        }
      ],
      "name": "depositToLayer",
      "outputs": [],
      "stateMutability": "nonpayable",
      "type": "function"
    },
    {
      "inputs": [
        {
          "internalType": "uint256",
          "name": "depositId",
          "type": "uint256"
        }
      ],
      "name": "deposits",
      "outputs": [
        {
          "internalType": "address",
          "name": "sender",
          "type": "address"
        },
        {
          "internalType": "string",
          "name": "recipient",
          "type": "string"
        },
        {
          "internalType": "uint256",
          "name": "amount",
          "type": "uint256"
        },
        {
          "internalType": "uint256",
          "name": "tip",
          "type": "uint256"
        },
        {
          "internalType": "uint256",
          "name": "blockHeight",
          "type": "uint256"
        }
      ],
      "stateMutability": "view",
      "type": "function"
    },
    {
      "inputs": [
        {
          "internalType": "bytes32",
          "name": "_queryId",
          "type": "bytes32"
        },
        {
          "internalType": "uint256",
          "name": "_timestamp",
          "type": "uint256"
        }
      ],
      "name": "getDataBefore",
      "outputs": [
        {
          "internalType": "bool",
          "name": "_ifRetrieve",
          "type": "bool"
        },
        {
          "internalType": "bytes",
          "name": "_value",
          "type": "bytes"
        },
        {
          "internalType": "uint256",
          "name": "_timestampRetrieved",
          "type": "uint256"
        }
      ],
      "stateMutability": "view",
      "type": "function"
    },
    {
      "inputs": [
        {
          "internalType": "bytes32",
          "name": "_queryId",
          "type": "bytes32"
        },
        {
          "internalType": "uint256",
          "name": "_timestamp",
          "type": "uint256"
        }
      ],
      "name": "getIndexForDataBefore",
      "outputs": [
        {
          "internalType": "bool",
          "name": "_found",
          "type": "bool"
        },
        {
          "internalType": "uint256",
          "name": "_index",
          "type": "uint256"
        }
      ],
      "stateMutability": "view",
      "type": "function"
    },
    {
      "inputs": [
        {
          "internalType": "bytes32",
          "name": "_queryId",
          "type": "bytes32"
        }
      ],
      "name": "getNewValueCountbyQueryId",
      "outputs": [
        {
          "internalType": "uint256",
          "name": "",
          "type": "uint256"
        }
      ],
      "stateMutability": "view",
      "type": "function"
    },
    {
      "inputs": [
        {
          "internalType": "bytes32",
          "name": "_queryId",
          "type": "bytes32"
        },
        {
          "internalType": "uint256",
          "name": "_timestamp",
          "type": "uint256"
        }
      ],
      "name": "getReporterByTimestamp",
      "outputs": [
        {
          "internalType": "address",
          "name": "",
          "type": "address"
        }
      ],
      "stateMutability": "view",
      "type": "function"
    },
    {
      "inputs": [],
      "name": "getTimeOfLastNewValue",
      "outputs": [
        {
          "internalType": "uint256",
          "name": "",
          "type": "uint256"
        }
      ],
      "stateMutability": "view",
      "type": "function"
    },
    {
      "inputs": [
        {
          "internalType": "bytes32",
          "name": "_queryId",
          "type": "bytes32"
        },
        {
          "internalType": "uint256",
          "name": "_index",
          "type": "uint256"
        }
      ],
      "name": "getTimestampbyQueryIdandIndex",
      "outputs": [
        {
          "internalType": "uint256",
          "name": "",
          "type": "uint256"
        }
      ],
      "stateMutability": "view",
      "type": "function"
    },
    {
      "inputs": [
        {
          "internalType": "uint256",
          "name": "_depositId",
          "type": "uint256"
        },
        {
          "internalType": "uint256",
          "name": "_withdrawId",
          "type": "uint256"
        }
      ],
      "name": "init",
      "outputs": [],
      "stateMutability": "nonpayable",
      "type": "function"
    },
    {
      "inputs": [],
      "name": "initialized",
      "outputs": [
        {
          "internalType": "bool",
          "name": "",
          "type": "bool"
        }
      ],
      "stateMutability": "view",
      "type": "function"
    },
    {
      "inputs": [
        {
          "internalType": "bytes32",
          "name": "_queryId",
          "type": "bytes32"
        },
        {
          "internalType": "uint256",
          "name": "_timestamp",
          "type": "uint256"
        }
      ],
      "name": "isInDispute",
      "outputs": [
        {
          "internalType": "bool",
          "name": "",
          "type": "bool"
        }
      ],
      "stateMutability": "view",
      "type": "function"
    },
    {
      "inputs": [],
      "name": "pauseBridge",
      "outputs": [],
      "stateMutability": "nonpayable",
      "type": "function"
    },
    {
      "inputs": [
        {
          "internalType": "bytes32",
          "name": "_queryId",
          "type": "bytes32"
        },
        {
          "internalType": "uint256",
          "name": "_timestamp",
          "type": "uint256"
        }
      ],
      "name": "retrieveData",
      "outputs": [
        {
          "internalType": "bytes",
          "name": "",
          "type": "bytes"
        }
      ],
      "stateMutability": "view",
      "type": "function"
    },
    {
      "inputs": [],
      "name": "tellorFlex",
      "outputs": [
        {
          "internalType": "contract ITellorFlex",
          "name": "",
          "type": "address"
        }
      ],
      "stateMutability": "view",
      "type": "function"
    },
    {
      "inputs": [],
      "name": "token",
      "outputs": [
        {
          "internalType": "contract ITellorMaster",
          "name": "",
          "type": "address"
        }
      ],
      "stateMutability": "view",
      "type": "function"
    },
    {
      "inputs": [
        {
          "internalType": "address",
          "name": "recipient",
          "type": "address"
        }
      ],
      "name": "tokensToClaim",
      "outputs": [
        {
          "internalType": "uint256",
          "name": "extraAmountToClaim",
          "type": "uint256"
        }
      ],
      "stateMutability": "view",
      "type": "function"
    },
    {
      "inputs": [],
      "name": "unpauseBridge",
      "outputs": [],
      "stateMutability": "nonpayable",
      "type": "function"
    },
    {
      "inputs": [],
      "name": "verify",
      "outputs": [
        {
          "internalType": "uint256",
          "name": "",
          "type": "uint256"
        }
      ],
      "stateMutability": "pure",
      "type": "function"
    },
    {
      "inputs": [
        {
          "internalType": "uint256",
          "name": "withdrawId",
          "type": "uint256"
        }
      ],
      "name": "withdrawClaimed",
      "outputs": [
        {
          "internalType": "bool",
          "name": "claimed",
          "type": "bool"
        }
      ],
      "stateMutability": "view",
      "type": "function"
    },
    {
      "inputs": [
        {
          "components": [
            {
              "internalType": "bytes32",
              "name": "queryId",
              "type": "bytes32"
            },
            {
              "components": [
                {
                  "internalType": "bytes",
                  "name": "value",
                  "type": "bytes"
                },
                {
                  "internalType": "uint256",
                  "name": "timestamp",
                  "type": "uint256"
                },
                {
                  "internalType": "uint256",
                  "name": "aggregatePower",
                  "type": "uint256"
                },
                {
                  "internalType": "uint256",
                  "name": "previousTimestamp",
                  "type": "uint256"
                },
                {
                  "internalType": "uint256",
                  "name": "nextTimestamp",
                  "type": "uint256"
                },
                {
                  "internalType": "uint256",
                  "name": "lastConsensusTimestamp",
                  "type": "uint256"
                }
              ],
              "internalType": "struct ReportData",
              "name": "report",
              "type": "tuple"
            },
            {
              "internalType": "uint256",
              "name": "attestationTimestamp",
              "type": "uint256"
            }
          ],
          "internalType": "struct OracleAttestationData",
          "name": "_attestData",
          "type": "tuple"
        },
        {
          "components": [
            {
              "internalType": "address",
              "name": "addr",
              "type": "address"
            },
            {
              "internalType": "uint256",
              "name": "power",
              "type": "uint256"
            }
          ],
          "internalType": "struct Validator[]",
          "name": "_valset",
          "type": "tuple[]"
        },
        {
          "components": [
            {
              "internalType": "uint8",
              "name": "v",
              "type": "uint8"
            },
            {
              "internalType": "bytes32",
              "name": "r",
              "type": "bytes32"
            },
            {
              "internalType": "bytes32",
              "name": "s",
              "type": "bytes32"
            }
          ],
          "internalType": "struct Signature[]",
          "name": "_sigs",
          "type": "tuple[]"
        },
        {
          "internalType": "uint256",
          "name": "_depositId",
          "type": "uint256"
        }
      ],
      "name": "withdrawFromLayer",
      "outputs": [],
      "stateMutability": "nonpayable",
      "type": "function"
    },
    {
      "inputs": [],
      "name": "withdrawLimit",
      "outputs": [
        {
          "internalType": "uint256",
          "name": "",
          "type": "uint256"
        }
      ],
      "stateMutability": "view",
      "type": "function"
    },
    {
      "inputs": [],
      "name": "withdrawLimitRecord",
      "outputs": [
        {
          "internalType": "uint256",
          "name": "",
          "type": "uint256"
        }
      ],
      "stateMutability": "view",
      "type": "function"
    },
    {
      "inputs": [],
      "name": "withdrawLimitUpdateTime",
      "outputs": [
        {
          "internalType": "uint256",
          "name": "",
          "type": "uint256"
        }
      ],
      "stateMutability": "view",
      "type": "function"
    }
  ],
  "bytecode": "0x60a060405260006080908152620000189060c062000120565b60408051601f198184030181529082905262000037916020016200013c565b604051602081830303815290604052805190602001206000553480156200005d57600080fd5b5060405162002d9b38038062002d9b8339810160408190526200008091620001a2565b600280546001600160a01b03199081166001600160a01b039384161790915560018054821694831694909417909355600380549093169116179055600b8054610100600160a81b0319166101003302179055620001ec565b6000815180845260005b818110156200010057602081850181015186830182015201620000e2565b506000602082860101526020601f19601f83011685010191505092915050565b602081526000620001356020830184620000d8565b9392505050565b60408152601360408201527f54656c6c6f724f7261636c6541646472657373000000000000000000000000006060820152608060208201526000620001356080830184620000d8565b80516001600160a01b03811681146200019d57600080fd5b919050565b600080600060608486031215620001b857600080fd5b620001c38462000185565b9250620001d36020850162000185565b9150620001e36040850162000185565b90509250925092565b612b9f80620001fc6000396000f3fe608060405234801561001057600080fd5b50600436106102485760003560e01c8063a5843f081161013b578063d9c51cd4116100b8578063f4913c7e1161007c578063f4913c7e146104f0578063f848d54114610503578063fa3c06d21461050b578063fc0c546a14610514578063fc735e991461052757600080fd5b8063d9c51cd41461049e578063db1cce41146104b1578063e07c5486146104c2578063e513730b146104d5578063ecf70858146104e857600080fd5b8063c049e653116100ff578063c049e65314610442578063c0f95d521461044b578063c5958af914610453578063ce5e11bf14610473578063d5f394881461048657600080fd5b8063a5843f08146103d9578063a792765f146103ec578063a82f143c1461040e578063b02c43d014610416578063b8eed2631461043a57600080fd5b80636262b438116101c95780638f4588cb1161018d5780638f4588cb146103a35780639410e01f146103ac5780639852099c146103b55780639b965a73146103be578063a41a644c146103c657600080fd5b80636262b4381461036c57806377b03e0d146103755780637dd0480f146103885780637f629c651461039057806389c5a50e1461039a57600080fd5b8063294490851161021057806329449085146102de57806343b5e433146103085780634466ec2c1461031457806344e87f911461032e578063578855b21461034157600080fd5b8063158ef93e1461024d578063178073dd1461026f5780631a8bcd34146102925780631e868334146102a9578063285bbd48146102c9575b600080fd5b600b5461025a9060ff1681565b60405190151581526020015b60405180910390f35b61025a61027d36600461211a565b600e6020526000908152604090205460ff1681565b61029b6103e881565b604051908152602001610266565b61029b6102b736600461214b565b600d6020526000908152604090205481565b6102dc6102d736600461214b565b61052f565b005b6102f16102ec36600461216f565b61083d565b604080519215158352602083019190915201610266565b61029b64e8d4a5100081565b6007546103219060ff1681565b60405161026691906121a7565b61025a61033c36600461216f565b6108c1565b600354610354906001600160a01b031681565b6040516001600160a01b039091168152602001610266565b61029b61a8c081565b61029b61038336600461211a565b61093f565b6102dc6109ad565b61029b621baf8081565b61029b600a5481565b61029b60095481565b61029b60065481565b61029b60045481565b61029b601481565b6102dc6103d4366004612214565b610c1c565b6102dc6103e736600461216f565b611218565b6103ff6103fa36600461216f565b611329565b6040516102669392919061233a565b6102dc6113e6565b61042961042436600461211a565b611503565b604051610266959493929190612365565b61029b600581565b61029b60085481565b61029b6115c4565b61046661046136600461216f565b611637565b60405161026691906123a4565b61029b61048136600461216f565b6116b0565b600b546103549061010090046001600160a01b031681565b6102dc6104ac36600461211a565b611725565b61029b69021e19e0c9bab240000081565b6103546104d036600461216f565b6117a4565b600254610354906001600160a01b031681565b61029b611819565b6102dc6104fe36600461247c565b6118c3565b61029b611d2f565b61029b60055481565b600154610354906001600160a01b031681565b61270f61029b565b600160075460ff16600281111561054857610548612191565b0361059a5760405162461bcd60e51b815260206004820152601d60248201527f546f6b656e4272696467653a206272696467652069732070617573656400000060448201526064015b60405180910390fd5b600b5460ff166105ec5760405162461bcd60e51b815260206004820152601c60248201527f546f6b656e4272696467653a206e6f7420696e697469616c697a6564000000006044820152606401610591565b6001600160a01b0381166000908152600d6020526040902054806106475760405162461bcd60e51b81526020600482015260126024820152710616d6f756e74206d757374206265203e20360741b6044820152606401610591565b600061065282611d59565b9050600081116106b45760405162461bcd60e51b815260206004820152602760248201527f546f6b656e4272696467653a207769746864726177206c696d6974206d7573746044820152660206265203e20360cc1b6064820152608401610591565b81811015610701576001600160a01b0383166000908152600d60205260409020546106e09082906124e2565b6001600160a01b0384166000908152600d602052604090205590508061071b565b6001600160a01b0383166000908152600d60205260408120555b81600a600082825461072d91906124e2565b909155505060015460405163a9059cbb60e01b81526001600160a01b038581166004830152602482018590529091169063a9059cbb906044016020604051808303816000875af1158015610785573d6000803e3d6000fd5b505050506040513d601f19601f820116820180604052508101906107a9919061250a565b6107f55760405162461bcd60e51b815260206004820152601c60248201527f546f6b656e4272696467653a207472616e73666572206661696c6564000000006044820152606401610591565b604080516001600160a01b0385168152602081018490527f9e0580024755a2e1f3a499efe43139fe7908912aff1ecacee8287b54d4418f3a91015b60405180910390a1505050565b600254604051632944908560e01b8152600481018490526024810183905260009182916001600160a01b03909116906329449085906044016040805180830381865afa158015610891573d6000803e3d6000fd5b505050506040513d601f19601f820116820180604052508101906108b59190612525565b915091505b9250929050565b6002546040516344e87f9160e01b815260048101849052602481018390526000916001600160a01b0316906344e87f9190604401602060405180830381865afa158015610912573d6000803e3d6000fd5b505050506040513d601f19601f82011682018060405250810190610936919061250a565b90505b92915050565b6002546040516377b03e0d60e01b8152600481018390526000916001600160a01b0316906377b03e0d90602401602060405180830381865afa158015610989573d6000803e3d6000fd5b505050506040513d601f19601f820116820180604052508101906109399190612551565b600360009054906101000a90046001600160a01b03166001600160a01b031663452a93206040518163ffffffff1660e01b8152600401602060405180830381865afa158015610a00573d6000803e3d6000fd5b505050506040513d601f19601f82011682018060405250810190610a24919061256a565b6001600160a01b0316336001600160a01b031614610a985760405162461bcd60e51b815260206004820152602b60248201527f546f6b656e4272696467653a206f6e6c7920677561726469616e2063616e207060448201526a617573652062726964676560a81b6064820152608401610591565b600060075460ff166002811115610ab157610ab1612191565b14610afe5760405162461bcd60e51b815260206004820181905260248201527f546f6b656e4272696467653a2063616e206f6e6c79207061757365206f6e63656044820152606401610591565b6001546040516323b872dd60e01b815233600482015261dead602482015269021e19e0c9bab240000060448201526001600160a01b03909116906323b872dd906064016020604051808303816000875af1158015610b60573d6000803e3d6000fd5b505050506040513d601f19601f82011682018060405250810190610b84919061250a565b610bd05760405162461bcd60e51b815260206004820152601c60248201527f546f6b656e4272696467653a207472616e73666572206661696c6564000000006044820152606401610591565b6007805460ff19166001908117909155426008556040517f9309bd706341b8519d822d5ea2ce463296bce466f9ce1c8814aa1ddc10708b8791610c12916121a7565b60405180910390a1565b600160075460ff166002811115610c3557610c35612191565b03610c825760405162461bcd60e51b815260206004820152601d60248201527f546f6b656e4272696467653a20627269646765206973207061757365640000006044820152606401610591565b600b5460ff16610cd45760405162461bcd60e51b815260206004820152601c60248201527f546f6b656e4272696467653a206e6f7420696e697469616c697a6564000000006044820152606401610591565b604080516000602082015290810182905260600160408051601f1981840301815290829052610d0591602001612587565b60405160208183030381529060405280519060200120866000013514610d6d5760405162461bcd60e51b815260206004820152601c60248201527f546f6b656e4272696467653a20696e76616c69642071756572794964000000006044820152606401610591565b6000818152600e602052604090205460ff1615610dda5760405162461bcd60e51b815260206004820152602560248201527f546f6b656e4272696467653a20776974686472617720616c726561647920636c604482015264185a5b595960da1b6064820152608401610591565b61a8c06103e8610ded60208901896125ba565b60200135610dfb91906125f0565b610e0590426124e2565b11610e5d5760405162461bcd60e51b815260206004820152602260248201527f546f6b656e4272696467653a207072656d61747572652061747465737461746960448201526137b760f11b6064820152608401610591565b61a8c0610e706103e860408901356125f0565b610e7a90426124e2565b10610ec75760405162461bcd60e51b815260206004820181905260248201527f546f6b656e4272696467653a206174746573746174696f6e20746f6f206f6c646044820152606401610591565b600354604051635e0d3b0f60e01b81526001600160a01b0390911690635e0d3b0f90610eff90899089908990899089906004016126dd565b60006040518083038186803b158015610f1757600080fd5b505afa158015610f2b573d6000803e3d6000fd5b50505050600360009054906101000a90046001600160a01b03166001600160a01b031663ba95ec276040518163ffffffff1660e01b8152600401602060405180830381865afa158015610f82573d6000803e3d6000fd5b505050506040513d601f19601f82011682018060405250810190610fa69190612551565b610fb360208801886125ba565b6040013510156110395760405162461bcd60e51b815260206004820152604560248201527f5265706f72742061676772656761746520706f776572206d757374206265206760448201527f726561746572207468616e206f7220657175616c20746f205f6d696e696d756d6064820152642837bbb2b960d91b608482015260a401610591565b6000818152600e602090815260408220805460ff1916600117905581908190611064908a018a6125ba565b61106e90806127d8565b81019061107b919061281f565b5091945092509050600061109464e8d4a510008361287f565b905060006110a182611d59565b9050818110156110f5576110b581836124e2565b6001600160a01b0386166000908152600d60205260409020546110d89190612896565b6001600160a01b0386166000908152600d60205260409020559050805b81600a600082825461110791906124e2565b909155505060015460405163a9059cbb60e01b81526001600160a01b038781166004830152602482018590529091169063a9059cbb906044016020604051808303816000875af115801561115f573d6000803e3d6000fd5b505050506040513d601f19601f82011682018060405250810190611183919061250a565b6111cf5760405162461bcd60e51b815260206004820152601c60248201527f546f6b656e4272696467653a207472616e73666572206661696c6564000000006044820152606401610591565b7e1e3fbdbd61c5a2425d14ff0020dd9bbd2bac70b606f7bd7552534c7bae55df8685878560405161120394939291906128a9565b60405180910390a15050505050505050505050565b600b5461010090046001600160a01b031633146112895760405162461bcd60e51b815260206004820152602960248201527f546f6b656e4272696467653a206f6e6c79206465706c6f7965722063616e20696044820152686e697469616c697a6560b81b6064820152608401610591565b600b5460ff16156112dc5760405162461bcd60e51b815260206004820181905260248201527f546f6b656e4272696467653a20616c726561647920696e697469616c697a65646044820152606401610591565b600482905560005b81811015611317576000818152600e60205260409020805460ff191660011790558061130f816128de565b9150506112e4565b5050600b805460ff1916600117905550565b60006060600080548503611360576040805130602082015260019101604051602081830303815290604052429250925092506113df565b60025460405163a792765f60e01b815260048101879052602481018690526001600160a01b039091169063a792765f90604401600060405180830381865afa1580156113b0573d6000803e3d6000fd5b505050506040513d6000823e601f3d908101601f191682016040526113d89190810190612944565b9250925092505b9250925092565b600160075460ff1660028111156113ff576113ff612191565b146114565760405162461bcd60e51b815260206004820152602160248201527f546f6b656e4272696467653a20627269646765206973206e6f742070617573656044820152601960fa1b6064820152608401610591565b621baf806008544261146891906124e2565b116114c55760405162461bcd60e51b815260206004820152602760248201527f546f6b656e4272696467653a206d7573742077616974206265666f726520756e60448201526670617573696e6760c81b6064820152608401610591565b6007805460ff191660029081179091556040517f9309bd706341b8519d822d5ea2ce463296bce466f9ce1c8814aa1ddc10708b8791610c12916121a7565b600c60205260009081526040902080546001820180546001600160a01b03909216929161152f9061299b565b80601f016020809104026020016040519081016040528092919081815260200182805461155b9061299b565b80156115a85780601f1061157d576101008083540402835291602001916115a8565b820191906000526020600020905b81548152906001019060200180831161158b57829003601f168201915b5050505050908060020154908060030154908060040154905085565b6002546040805163607caea960e11b815290516000926001600160a01b03169163c0f95d529160048083019260209291908290030181865afa15801561160e573d6000803e3d6000fd5b505050506040513d601f19601f820116820180604052508101906116329190612551565b905090565b60025460405163c5958af960e01b815260048101849052602481018390526060916001600160a01b03169063c5958af990604401600060405180830381865afa158015611688573d6000803e3d6000fd5b505050506040513d6000823e601f3d908101601f1916820160405261093691908101906129d5565b60025460405163ce5e11bf60e01b815260048101849052602481018390526000916001600160a01b03169063ce5e11bf90604401602060405180830381865afa158015611701573d6000803e3d6000fd5b505050506040513d601f19601f820116820180604052508101906109369190612551565b6001546040516323b872dd60e01b8152336004820152306024820152604481018390526001600160a01b03909116906323b872dd906064016020604051808303816000875af115801561177c573d6000803e3d6000fd5b505050506040513d601f19601f820116820180604052508101906117a0919061250a565b5050565b60025460405163703e2a4360e11b815260048101849052602481018390526000916001600160a01b03169063e07c548690604401602060405180830381865afa1580156117f5573d6000803e3d6000fd5b505050506040513d601f19601f82011682018060405250810190610936919061256a565b600061a8c06005544261182c91906124e2565b11156118bc57600561183c611edc565b6001546040516370a0823160e01b81523060048201526001600160a01b03909116906370a0823190602401602060405180830381865afa158015611884573d6000803e3d6000fd5b505050506040513d601f19601f820116820180604052508101906118a89190612551565b6118b29190612896565b61163291906125f0565b5060065490565b600b5460ff166119155760405162461bcd60e51b815260206004820152601c60248201527f546f6b656e4272696467653a206e6f7420696e697469616c697a6564000000006044820152606401610591565b67016345785d8a000083116119885760405162461bcd60e51b815260206004820152603360248201527f546f6b656e4272696467653a20616d6f756e74206d7573742062652067726561604482015272746572207468616e20302e3120746f6b656e7360681b6064820152608401610591565b61199764e8d4a5100084612a0a565b156119fa5760405162461bcd60e51b815260206004820152602d60248201527f546f6b656e4272696467653a20616d6f756e74206d757374206265206469766960448201526c39b4b1363290313c9018b2989960991b6064820152608401610591565b611a0383611f97565b831115611a785760405162461bcd60e51b815260206004820152603960248201527f546f6b656e4272696467653a20616d6f756e742065786365656473206465706f60448201527f736974206c696d697420666f722074696d6520706572696f64000000000000006064820152608401610591565b82821115611aee5760405162461bcd60e51b815260206004820152603560248201527f546f6b656e4272696467653a20746970206d757374206265206c65737320746860448201527f616e206f7220657175616c20746f20616d6f756e7400000000000000000000006064820152608401610591565b8115611b6f5764e8d4a51000821015611b6f5760405162461bcd60e51b815260206004820152603860248201527f546f6b656e4272696467653a20746970206d757374206265206772656174657260448201527f207468616e206f7220657175616c20746f2031206c6f796100000000000000006064820152608401610591565b6001546040516323b872dd60e01b8152336004820152306024820152604481018590526001600160a01b03909116906323b872dd906064016020604051808303816000875af1158015611bc6573d6000803e3d6000fd5b505050506040513d601f19601f82011682018060405250810190611bea919061250a565b611c365760405162461bcd60e51b815260206004820181905260248201527f546f6b656e4272696467653a207472616e7366657246726f6d206661696c65646044820152606401610591565b60048054906000611c46836128de565b91905055508260066000828254611c5d91906124e2565b90915550506040805160a0810182523381526020808201848152828401879052606083018690524360808401526004546000908152600c9092529290208151815473ffffffffffffffffffffffffffffffffffffffff19166001600160a01b0390911617815591519091906001820190611cd79082612a6d565b506040828101516002830155606083015160038301556080909201516004918201555490517fe9a436e6735e7a54b0d2505d14247a614f3af68dad813a7a46834b876b13d7c191610830913390859088908890612b2d565b600061a8c060095442611d4291906124e2565b1115611d5257601461183c611edc565b50600a5490565b600061a8c060095442611d6c91906124e2565b1115611ed4576001546040516370a0823160e01b81523060048201526000916001600160a01b0316906370a0823190602401602060405180830381865afa158015611dbb573d6000803e3d6000fd5b505050506040513d601f19601f82011682018060405250810190611ddf9190612551565b905082811015611ec057600160009054906101000a90046001600160a01b03166001600160a01b031663b67f8cbd6040518163ffffffff1660e01b8152600401600060405180830381600087803b158015611e3957600080fd5b505af1158015611e4d573d6000803e3d6000fd5b50506001546040516370a0823160e01b81523060048201526001600160a01b0390911692506370a082319150602401602060405180830381865afa158015611e99573d6000803e3d6000fd5b505050506040513d601f19601f82011682018060405250810190611ebd9190612551565b90505b611ecb6014826125f0565b600a5550426009555b5050600a5490565b60015460405163612c8f7f60e01b81527ff9fc7fb48c7559e97d53ab4f65d985310377942095551edc1ff9acf706a45a0d6004820152600091829162015180916001600160a01b03169063612c8f7f90602401602060405180830381865afa158015611f4c573d6000803e3d6000fd5b505050506040513d601f19601f82011682018060405250810190611f709190612551565b611f7a90426124e2565b611f8d906807f733bf7a7fe6000061287f565b61093991906125f0565b600061a8c060055442611faa91906124e2565b1115612112576001546040516370a0823160e01b81523060048201526000916001600160a01b0316906370a0823190602401602060405180830381865afa158015611ff9573d6000803e3d6000fd5b505050506040513d601f19601f8201168201806040525081019061201d9190612551565b9050828110156120fe57600160009054906101000a90046001600160a01b03166001600160a01b031663b67f8cbd6040518163ffffffff1660e01b8152600401600060405180830381600087803b15801561207757600080fd5b505af115801561208b573d6000803e3d6000fd5b50506001546040516370a0823160e01b81523060048201526001600160a01b0390911692506370a082319150602401602060405180830381865afa1580156120d7573d6000803e3d6000fd5b505050506040513d601f19601f820116820180604052508101906120fb9190612551565b90505b6121096005826125f0565b60065550426005555b505060065490565b60006020828403121561212c57600080fd5b5035919050565b6001600160a01b038116811461214857600080fd5b50565b60006020828403121561215d57600080fd5b813561216881612133565b9392505050565b6000806040838503121561218257600080fd5b50508035926020909101359150565b634e487b7160e01b600052602160045260246000fd5b60208101600383106121c957634e487b7160e01b600052602160045260246000fd5b91905290565b60008083601f8401126121e157600080fd5b50813567ffffffffffffffff8111156121f957600080fd5b6020830191508360206060830285010111156108ba57600080fd5b6000806000806000806080878903121561222d57600080fd5b863567ffffffffffffffff8082111561224557600080fd5b908801906060828b03121561225957600080fd5b9096506020880135908082111561226f57600080fd5b818901915089601f83011261228357600080fd5b81358181111561229257600080fd5b8a60208260061b85010111156122a757600080fd5b6020830197508096505060408901359150808211156122c557600080fd5b506122d289828a016121cf565b979a9699509497949695606090950135949350505050565b60005b838110156123055781810151838201526020016122ed565b50506000910152565b600081518084526123268160208601602086016122ea565b601f01601f19169290920160200192915050565b8315158152606060208201526000612355606083018561230e565b9050826040830152949350505050565b6001600160a01b038616815260a06020820152600061238760a083018761230e565b604083019590955250606081019290925260809091015292915050565b602081526000610936602083018461230e565b634e487b7160e01b600052604160045260246000fd5b604051601f8201601f1916810167ffffffffffffffff811182821017156123f6576123f66123b7565b604052919050565b600067ffffffffffffffff821115612418576124186123b7565b50601f01601f191660200190565b600082601f83011261243757600080fd5b813561244a612445826123fe565b6123cd565b81815284602083860101111561245f57600080fd5b816020850160208301376000918101602001919091529392505050565b60008060006060848603121561249157600080fd5b8335925060208401359150604084013567ffffffffffffffff8111156124b657600080fd5b6124c286828701612426565b9150509250925092565b634e487b7160e01b600052601160045260246000fd5b81810381811115610939576109396124cc565b8051801515811461250557600080fd5b919050565b60006020828403121561251c57600080fd5b610936826124f5565b6000806040838503121561253857600080fd5b612541836124f5565b9150602083015190509250929050565b60006020828403121561256357600080fd5b5051919050565b60006020828403121561257c57600080fd5b815161216881612133565b60408152600960408201526854524242726964676560b81b6060820152608060208201526000610936608083018461230e565b6000823560be198336030181126125d057600080fd5b9190910192915050565b634e487b7160e01b600052601260045260246000fd5b6000826125ff576125ff6125da565b500490565b81835281816020850137506000828201602090810191909152601f909101601f19169091010190565b8183526000602080850194508260005b8581101561267557813561265081612133565b6001600160a01b0316875281830135838801526040968701969091019060010161263d565b509495945050505050565b818352600060208085019450826000805b868110156126d157823560ff81168082146126aa578384fd5b89525082840135848901526040808401359089015260609788019790920191600101612691565b50959695505050505050565b60608152853560608201526000602087013560be1988360301811261270157600080fd5b606060808401528701803536829003601e1901811261271f57600080fd5b810160208101903567ffffffffffffffff81111561273c57600080fd5b80360382131561274b57600080fd5b60c08086015261276061018086018284612604565b915050602082013560e085015260408201356101008501526060820135610120850152608082013561014085015260a0820135610160850152604089013560a085015283810360208501526127b681888a61262d565b91505082810360408401526127cc818587612680565b98975050505050505050565b6000808335601e198436030181126127ef57600080fd5b83018035915067ffffffffffffffff82111561280a57600080fd5b6020019150368190038213156108ba57600080fd5b6000806000806080858703121561283557600080fd5b843561284081612133565b9350602085013567ffffffffffffffff81111561285c57600080fd5b61286887828801612426565b949794965050505060408301359260600135919050565b8082028115828204841417610939576109396124cc565b80820180821115610939576109396124cc565b8481526080602082015260006128c2608083018661230e565b6001600160a01b03949094166040830152506060015292915050565b6000600182016128f0576128f06124cc565b5060010190565b600082601f83011261290857600080fd5b8151612916612445826123fe565b81815284602083860101111561292b57600080fd5b61293c8260208301602087016122ea565b949350505050565b60008060006060848603121561295957600080fd5b612962846124f5565b9250602084015167ffffffffffffffff81111561297e57600080fd5b61298a868287016128f7565b925050604084015190509250925092565b600181811c908216806129af57607f821691505b6020821081036129cf57634e487b7160e01b600052602260045260246000fd5b50919050565b6000602082840312156129e757600080fd5b815167ffffffffffffffff8111156129fe57600080fd5b61293c848285016128f7565b600082612a1957612a196125da565b500690565b601f821115612a6857600081815260208120601f850160051c81016020861015612a455750805b601f850160051c820191505b81811015612a6457828155600101612a51565b5050505b505050565b815167ffffffffffffffff811115612a8757612a876123b7565b612a9b81612a95845461299b565b84612a1e565b602080601f831160018114612ad05760008415612ab85750858301515b600019600386901b1c1916600185901b178555612a64565b600085815260208120601f198616915b82811015612aff57888601518255948401946001909101908401612ae0565b5085821015612b1d5787850151600019600388901b60f8161c191681555b5050505050600190811b01905550565b8581526001600160a01b038516602082015260a060408201526000612b5560a083018661230e565b60608301949094525060800152939250505056fea264697066735822122050845c809bf5d09787ee0b8c318974f4cf073eed14cd171259fd9c4965ddc69d64736f6c63430008130033",
  "linkReferences": {},
  "deployedLinkReferences": {}
}